{
  "contractName": "NationalId",
  "abi": [
    {
      "inputs": [],
      "payable": false,
      "stateMutability": "nonpayable",
      "type": "constructor"
    },
    {
      "constant": true,
      "inputs": [
        {
          "internalType": "uint256",
          "name": "",
          "type": "uint256"
        }
      ],
      "name": "persons",
      "outputs": [
        {
          "internalType": "uint256",
          "name": "id",
          "type": "uint256"
        },
        {
          "internalType": "string",
          "name": "name",
          "type": "string"
        },
        {
          "internalType": "string",
          "name": "age",
          "type": "string"
        }
      ],
      "payable": false,
      "stateMutability": "view",
      "type": "function"
    },
    {
      "constant": true,
      "inputs": [],
      "name": "personsCount",
      "outputs": [
        {
          "internalType": "uint256",
          "name": "",
          "type": "uint256"
        }
      ],
      "payable": false,
      "stateMutability": "view",
      "type": "function"
    }
  ],
  "bytecode": "0x608060405234801561001057600080fd5b5061008b6040518060400160405280601381526020017f5061747269636b2044555348494d494d414e41000000000000000000000000008152506040518060400160405280600981526020017f303738373836363930000000000000000000000000000000000000000000000081525061010a60201b60201c565b6101056040518060400160405280600d81526020017f416e64726577204d75736f6b65000000000000000000000000000000000000008152506040518060400160405280600981526020017f303738383434373839000000000000000000000000000000000000000000000081525061010a60201b60201c565b61023d565b60016000815480929190600101919050555060405180606001604052806001548152602001838152602001828152506000806001548152602001908152602001600020600082015181600001556020820151816001019080519060200190610173929190610198565b506040820151816002019080519060200190610190929190610198565b509050505050565b828054600181600116156101000203166002900490600052602060002090601f016020900481019282601f106101d957805160ff1916838001178555610207565b82800160010185558215610207579182015b828111156102065782518255916020019190600101906101eb565b5b5090506102149190610218565b5090565b61023a91905b8082111561023657600081600090555060010161021e565b5090565b90565b6103088061024c6000396000f3fe608060405234801561001057600080fd5b50600436106100365760003560e01c8063871c442d1461003b578063a2f9eac614610059575b600080fd5b610043610173565b6040518082815260200191505060405180910390f35b6100856004803603602081101561006f57600080fd5b8101908080359060200190929190505050610179565b604051808481526020018060200180602001838103835285818151815260200191508051906020019080838360005b838110156100cf5780820151818401526020810190506100b4565b50505050905090810190601f1680156100fc5780820380516001836020036101000a031916815260200191505b50838103825284818151815260200191508051906020019080838360005b8381101561013557808201518184015260208101905061011a565b50505050905090810190601f1680156101625780820380516001836020036101000a031916815260200191505b509550505050505060405180910390f35b60015481565b6000602052806000526040600020600091509050806000015490806001018054600181600116156101000203166002900480601f01602080910402602001604051908101604052809291908181526020018280546001816001161561010002031660029004801561022b5780601f106102005761010080835404028352916020019161022b565b820191906000526020600020905b81548152906001019060200180831161020e57829003601f168201915b505050505090806002018054600181600116156101000203166002900480601f0160208091040260200160405190810160405280929190818152602001828054600181600116156101000203166002900480156102c95780601f1061029e576101008083540402835291602001916102c9565b820191906000526020600020905b8154815290600101906020018083116102ac57829003601f168201915b505050505090508356fea265627a7a723158205a6be373dd6e175c42da9db74b3d510bc54112994c0edf6aac156a97ea88865f64736f6c63430005100032",
  "source": "pragma solidity >=0.4.21 <0.7.0;\r\n/*\r\n   This program is about national identification using blockchain.\r\n\r\n   Algorithm\r\n   ==========\r\n   create a contract of NationalId\r\n   Declare the structure of citizen's details(Name, telephone number)\r\n   mapping the details as a transaction\r\n   Declare a variable that count the number of person saved\r\n   Declare a contractor to save the personal details\r\n   Add a function to save name and telephone number\r\n   count the number of person\r\n\r\n  \r\n*/\r\ncontract NationalId \r\n{\r\n\t\r\n\t// model a personal\r\n\tstruct Person\r\n\t    {\r\n\r\n        \tuint id;\r\n\t\t\tstring name;\r\n\t\t\tstring age;\r\n\t    }\r\n\t    // store the activity done \r\n\t    //mapping(address => bool) public informations;\r\n\t    //store Person\r\n\t    //Fetch person\r\n\t    mapping(uint => Person) public persons;\r\n\r\n        //Store Personals Count\r\n        uint public personsCount;\r\n    // contruct to save the data\r\n\tconstructor () public {\r\n\t  addPerson(\"Patrick DUSHIMIMANA\",\"078786690\");\r\n\t  addPerson(\"Andrew Musoke\",\"078844789\");\r\n\t} \r\n\r\n\tfunction addPerson ( string memory _name,string memory _age) private {\r\n\tpersonsCount ++;\r\n    persons[personsCount] = Person(personsCount, _name, _age);\r\n\t}\r\n\t\r\n}",
  "sourcePath": "C:\\Users\\dushi\\nationalId\\contracts\\NationalId.sol",
  "compiler": {
    "name": "solc",
    "version": "0.5.16+commit.9c3226ce.Emscripten.clang"
  },
  "schemaVersion": "3.0.23",
  "updatedAt": "2020-02-24T21:44:04.899Z",
  "networkType": "ethereum",
  "devdoc": {
    "methods": {}
  },
  "userdoc": {
    "methods": {}
  }
}